{
  "contractName": "LuckyList",
  "abi": [
    {
      "inputs": [],
      "payable": false,
      "stateMutability": "nonpayable",
      "type": "constructor"
    },
    {
      "constant": false,
      "inputs": [
        {
          "name": "_name",
          "type": "string"
        },
        {
          "name": "_logo_ipfs",
          "type": "string"
        }
      ],
      "name": "addAddress",
      "outputs": [
        {
          "name": "",
          "type": "string"
        }
      ],
      "payable": true,
      "stateMutability": "payable",
      "type": "function"
    },
    {
      "constant": false,
      "inputs": [],
      "name": "getMeOffTheFuckingList",
      "outputs": [],
      "payable": false,
      "stateMutability": "nonpayable",
      "type": "function"
    },
    {
      "constant": false,
      "inputs": [],
      "name": "lootDonationBox",
      "outputs": [],
      "payable": false,
      "stateMutability": "nonpayable",
      "type": "function"
    },
    {
      "constant": true,
      "inputs": [
        {
          "name": "i",
          "type": "uint256"
        }
      ],
      "name": "getLucky",
      "outputs": [
        {
          "name": "",
          "type": "address"
        },
        {
          "name": "",
          "type": "string"
        },
        {
          "name": "",
          "type": "string"
        }
      ],
      "payable": false,
      "stateMutability": "view",
      "type": "function"
    },
    {
      "constant": true,
      "inputs": [],
      "name": "getIndex",
      "outputs": [
        {
          "name": "",
          "type": "uint256"
        }
      ],
      "payable": false,
      "stateMutability": "view",
      "type": "function"
    }
  ],
  "bytecode": "0x608060405260006001556019600255600060035560196040519080825280602002602001820160405280156100435781602001602082028038833980820191505090505b50600490805190602001906100599291906100ac565b5034801561006657600080fd5b50336000806101000a81548173ffffffffffffffffffffffffffffffffffffffff021916908373ffffffffffffffffffffffffffffffffffffffff160217905550610179565b828054828255906000526020600020908101928215610125579160200282015b828111156101245782518260006101000a81548173ffffffffffffffffffffffffffffffffffffffff021916908373ffffffffffffffffffffffffffffffffffffffff160217905550916020019190600101906100cc565b5b5090506101329190610136565b5090565b61017691905b8082111561017257600081816101000a81549073ffffffffffffffffffffffffffffffffffffffff02191690555060010161013c565b5090565b90565b610bab806101886000396000f30060806040526004361061006d576000357c0100000000000000000000000000000000000000000000000000000000900463ffffffff168063063d4972146100725780631bcbc28c1461008957806381045ead146101a4578063c0bf9f9a146101cf578063c97806f414610314575b600080fd5b34801561007e57600080fd5b5061008761032b565b005b610129600480360381019080803590602001908201803590602001908080601f0160208091040260200160405190810160405280939291908181526020018383808284378201915050505050509192919290803590602001908201803590602001908080601f01602080910402602001604051908101604052809392919081815260200183838082843782019150505050505091929192905050506103b6565b6040518080602001828103825283818151815260200191508051906020019080838360005b8381101561016957808201518184015260208101905061014e565b50505050905090810190601f1680156101965780820380516001836020036101000a031916815260200191505b509250505060405180910390f35b3480156101b057600080fd5b506101b9610744565b6040518082815260200191505060405180910390f35b3480156101db57600080fd5b506101fa6004803603810190808035906020019092919050505061074e565b604051808473ffffffffffffffffffffffffffffffffffffffff1673ffffffffffffffffffffffffffffffffffffffff1681526020018060200180602001838103835285818151815260200191508051906020019080838360005b83811015610270578082015181840152602081019050610255565b50505050905090810190601f16801561029d5780820380516001836020036101000a031916815260200191505b50838103825284818151815260200191508051906020019080838360005b838110156102d65780820151818401526020810190506102bb565b50505050905090810190601f1680156103035780820380516001836020036101000a031916815260200191505b509550505050505060405180910390f35b34801561032057600080fd5b5061032961099e565b005b600560003373ffffffffffffffffffffffffffffffffffffffff1673ffffffffffffffffffffffffffffffffffffffff168152602001908152602001600020600080820160006101000a81549073ffffffffffffffffffffffffffffffffffffffff02191690556001820160006103a29190610a5a565b6002820160006103b29190610a5a565b5050565b60606103c0610aa2565b60015434101561042e57606060405190810160405280602281526020017f436f756c646e277420616464206265636175736520796f7520756e646572706181526020017f6964000000000000000000000000000000000000000000000000000000000000815250915061073d565b6060604051908101604052803373ffffffffffffffffffffffffffffffffffffffff16815260200185815260200184815250905080600560003373ffffffffffffffffffffffffffffffffffffffff1673ffffffffffffffffffffffffffffffffffffffff16815260200190815260200160002060008201518160000160006101000a81548173ffffffffffffffffffffffffffffffffffffffff021916908373ffffffffffffffffffffffffffffffffffffffff1602179055506020820151816001019080519060200190610505929190610ada565b506040820151816002019080519060200190610522929190610ada565b5090505033600460035481548110151561053857fe5b9060005260206000200160006101000a81548173ffffffffffffffffffffffffffffffffffffffff021916908373ffffffffffffffffffffffffffffffffffffffff160217905550600160036000828254019250508190555060025460035411156105a65760006003819055505b600060046003548154811015156105b957fe5b9060005260206000200160009054906101000a900473ffffffffffffffffffffffffffffffffffffffff1673ffffffffffffffffffffffffffffffffffffffff161415156107045760056000600460035481548110151561061657fe5b9060005260206000200160009054906101000a900473ffffffffffffffffffffffffffffffffffffffff1673ffffffffffffffffffffffffffffffffffffffff1673ffffffffffffffffffffffffffffffffffffffff168152602001908152602001600020600080820160006101000a81549073ffffffffffffffffffffffffffffffffffffffff02191690556001820160006106b39190610a5a565b6002820160006106c39190610a5a565b505060046003548154811015156106d657fe5b9060005260206000200160006101000a81549073ffffffffffffffffffffffffffffffffffffffff02191690555b6040805190810160405280601a81526020017f596f7520617265206f6e20746865206c75636b79206c6973742100000000000081525091505b5092915050565b6000600354905090565b600060608061075b610aa2565b6005600060048781548110151561076e57fe5b9060005260206000200160009054906101000a900473ffffffffffffffffffffffffffffffffffffffff1673ffffffffffffffffffffffffffffffffffffffff1673ffffffffffffffffffffffffffffffffffffffff168152602001908152602001600020606060405190810160405290816000820160009054906101000a900473ffffffffffffffffffffffffffffffffffffffff1673ffffffffffffffffffffffffffffffffffffffff1673ffffffffffffffffffffffffffffffffffffffff168152602001600182018054600181600116156101000203166002900480601f0160208091040260200160405190810160405280929190818152602001828054600181600116156101000203166002900480156108ce5780601f106108a3576101008083540402835291602001916108ce565b820191906000526020600020905b8154815290600101906020018083116108b157829003601f168201915b50505050508152602001600282018054600181600116156101000203166002900480601f0160208091040260200160405190810160405280929190818152602001828054600181600116156101000203166002900480156109705780601f1061094557610100808354040283529160200191610970565b820191906000526020600020905b81548152906001019060200180831161095357829003601f168201915b5050505050815250509050806000015181602001518260400151819150809050935093509350509193909250565b6000809054906101000a900473ffffffffffffffffffffffffffffffffffffffff1673ffffffffffffffffffffffffffffffffffffffff163373ffffffffffffffffffffffffffffffffffffffff161415156109f957610a58565b3373ffffffffffffffffffffffffffffffffffffffff166108fc3073ffffffffffffffffffffffffffffffffffffffff16319081150290604051600060405180830381858888f19350505050158015610a56573d6000803e3d6000fd5b505b565b50805460018160011615610100020316600290046000825580601f10610a805750610a9f565b601f016020900490600052602060002090810190610a9e9190610b5a565b5b50565b606060405190810160405280600073ffffffffffffffffffffffffffffffffffffffff16815260200160608152602001606081525090565b828054600181600116156101000203166002900490600052602060002090601f016020900481019282601f10610b1b57805160ff1916838001178555610b49565b82800160010185558215610b49579182015b82811115610b48578251825591602001919060010190610b2d565b5b509050610b569190610b5a565b5090565b610b7c91905b80821115610b78576000816000905550600101610b60565b5090565b905600a165627a7a72305820c243a2246dc76d7313f39bb2d5e9c1c3c083e93ac3df81677d881eb9dc7133160029",
  "source": "pragma solidity ^0.4.24;\n\n// This is the Ethtective lucky list, add yourself at http://www.ethtective.com\n\ncontract LuckyList {\n    \n    // You know, at some point we'll do some fancy curved token bonding here\n    address owner;\n    uint price = 0;//10000000000000000;\n    uint list_max = 25;\n\n    uint current_index = 0;\n    address[] keys = new address[](25);\n    mapping(address => Lucky) luckyByAddress; \n\n    constructor() public {\n        owner = msg.sender;\n    }\n    \n    struct Lucky {\n        address _address;\n        string _name;\n        string _logo_ipfs;\n    }    \n\n    // Add yourself to Ze List Of AweZome! (buy the Dank Mono Font by the way, disclaimer: I am just a user of the font but it has the most porno Z of all programming fonts in existenZ)\n    function addAddress(string _name, string _logo_ipfs) public payable returns(string) {\n        if (msg.value < price) return \"Couldn't add because you underpaid\";\n        Lucky memory newLucky = Lucky(msg.sender, _name, _logo_ipfs);\n        //we have a new lucky\n        luckyByAddress[msg.sender] = newLucky;\n        //add address to keys LUT\n        keys[current_index] = msg.sender;\n        //increase the indexer\n        current_index += 1;\n        //and we \n        // price += 10000000000000000;\n        if (current_index > list_max)\n        {\n            current_index = 0;\n        }\n        if (keys[current_index] != 0)\n        {\n            delete luckyByAddress[keys[current_index]];\n            delete keys[current_index];   \n        }\n        return \"You are on the lucky list!\";\n    }\n\n    // This is to let the owner remove information about his address that he doesn't like, receives a small refund for his efforts and the sad fact that he's not on the list anymore\n    function getMeOffTheFuckingList() public {\n        delete luckyByAddress[msg.sender];\n        //we could fix the array now, but we don't give a fuck\n        //we just want to get him off the motherfucking list\n    }\n    \n    // This is for me, all of it, it funds my habits\n    function lootDonationBox() public\n    {\n        if (msg.sender != owner) return;\n        msg.sender.transfer(address(this).balance);\n    }\n    \n    function getLucky(uint i) public view returns(address, string, string) \n    {\n        Lucky memory temp = luckyByAddress[keys[i]];\n        return (temp._address, temp._name, temp._logo_ipfs);\n    }\n    \n    function getIndex() public view returns(uint) \n    {\n        return current_index;\n    }\n    \n}",
  "sourcePath": "/Users/alexander/Dropbox/Development/ethtective_luckylist/contracts/LuckyList.sol",
  "compiler": {
    "name": "solc",
    "version": "0.4.24+commit.e67f0147.Emscripten.clang"
  },
  "schemaVersion": "2.0.1",
  "updatedAt": "2018-08-31T12:37:06.728Z"
}