{
  "contractName": "LuckyList",
  "abi": [
    {
      "constant": true,
      "inputs": [
        {
          "name": "",
          "type": "uint256"
        }
      ],
      "name": "keys",
      "outputs": [
        {
          "name": "",
          "type": "address"
        }
      ],
      "payable": false,
      "stateMutability": "view",
      "type": "function"
    },
    {
      "constant": true,
      "inputs": [
        {
          "name": "",
          "type": "address"
        }
      ],
      "name": "luckyByAddress",
      "outputs": [
        {
          "name": "_address",
          "type": "address"
        },
        {
          "name": "exists",
          "type": "bool"
        },
        {
          "name": "removed",
          "type": "bool"
        }
      ],
      "payable": false,
      "stateMutability": "view",
      "type": "function"
    },
    {
      "inputs": [],
      "payable": false,
      "stateMutability": "nonpayable",
      "type": "constructor"
    },
    {
      "constant": false,
      "inputs": [
        {
          "name": "_address",
          "type": "address"
        }
      ],
      "name": "addAddress",
      "outputs": [
        {
          "name": "",
          "type": "string"
        }
      ],
      "payable": true,
      "stateMutability": "payable",
      "type": "function"
    },
    {
      "constant": false,
      "inputs": [
        {
          "name": "_addresses",
          "type": "address[]"
        }
      ],
      "name": "addAddressAdmin",
      "outputs": [
        {
          "name": "",
          "type": "string"
        }
      ],
      "payable": true,
      "stateMutability": "payable",
      "type": "function"
    },
    {
      "constant": false,
      "inputs": [],
      "name": "getMeOffTheFuckingList",
      "outputs": [],
      "payable": false,
      "stateMutability": "nonpayable",
      "type": "function"
    },
    {
      "constant": false,
      "inputs": [],
      "name": "lootDonationBox",
      "outputs": [],
      "payable": false,
      "stateMutability": "nonpayable",
      "type": "function"
    },
    {
      "constant": true,
      "inputs": [
        {
          "name": "i",
          "type": "uint256"
        }
      ],
      "name": "getLucky",
      "outputs": [
        {
          "name": "",
          "type": "address"
        }
      ],
      "payable": false,
      "stateMutability": "view",
      "type": "function"
    },
    {
      "constant": true,
      "inputs": [
        {
          "name": "a",
          "type": "address"
        }
      ],
      "name": "getAddress",
      "outputs": [
        {
          "name": "",
          "type": "address"
        }
      ],
      "payable": false,
      "stateMutability": "view",
      "type": "function"
    },
    {
      "constant": false,
      "inputs": [
        {
          "name": "_price",
          "type": "uint256"
        }
      ],
      "name": "setPrice",
      "outputs": [],
      "payable": false,
      "stateMutability": "nonpayable",
      "type": "function"
    },
    {
      "constant": true,
      "inputs": [],
      "name": "getIndex",
      "outputs": [
        {
          "name": "",
          "type": "uint256"
        }
      ],
      "payable": false,
      "stateMutability": "view",
      "type": "function"
    },
    {
      "constant": true,
      "inputs": [],
      "name": "getPrice",
      "outputs": [
        {
          "name": "",
          "type": "uint256"
        }
      ],
      "payable": false,
      "stateMutability": "view",
      "type": "function"
    }
  ],
  "bytecode": "0x6080604052668e1bc9bf0400006001819055600255606460035560006004556005805460ff1916905534801561003457600080fd5b5060008054600160a060020a03191633179055610803806100566000396000f3006080604052600436106100ae5763ffffffff7c0100000000000000000000000000000000000000000000000000000000600035041663063d497281146100b35780630cb6aaf1146100ca578063116cdc99146100fe57806338eada1c1461014957806381045ead146101d257806391b7f5ed146101f957806398d5fdca14610211578063ae22c57d14610226578063c0bf9f9a14610247578063c97806f41461025f578063dd9fd04914610274575b600080fd5b3480156100bf57600080fd5b506100c86102bc565b005b3480156100d657600080fd5b506100e2600435610338565b60408051600160a060020a039092168252519081900360200190f35b34801561010a57600080fd5b5061011f600160a060020a0360043516610360565b60408051600160a060020a0390941684529115156020840152151582820152519081900360600190f35b61015d600160a060020a03600435166103b4565b6040805160208082528351818301528351919283929083019185019080838360005b8381101561019757818101518382015260200161017f565b50505050905090810190601f1680156101c45780820380516001836020036101000a031916815260200191505b509250505060405180910390f35b3480156101de57600080fd5b506101e7610541565b60408051918252519081900360200190f35b34801561020557600080fd5b506100c8600435610547565b34801561021d57600080fd5b506101e7610560565b34801561023257600080fd5b506100e2600160a060020a0360043516610566565b34801561025357600080fd5b506100e2600435610584565b34801561026b57600080fd5b506100c86105cb565b6040805160206004803580820135838102808601850190965280855261015d9536959394602494938501929182918501908490808284375094975061060f9650505050505050565b3360009081526007602052604090205474010000000000000000000000000000000000000000900460ff1615156001141561033657336000908152600760205260409020805475ff000000000000000000000000000000000000000000191675010000000000000000000000000000000000000000001790555b565b600680548290811061034657fe5b600091825260209091200154600160a060020a0316905081565b600760205260009081526040902054600160a060020a0381169060ff740100000000000000000000000000000000000000008204811691750100000000000000000000000000000000000000000090041683565b60015460609034101561044e57604080517f08c379a000000000000000000000000000000000000000000000000000000000815260206004820152602360248201527f436f756c646e277420616464206265636175736520796f7520756e646572706160448201527f69642e0000000000000000000000000000000000000000000000000000000000606482015290519081900360840190fd5b600160a060020a03821660009081526007602052604090205474010000000000000000000000000000000000000000900460ff161515600114156104f357604080517f08c379a000000000000000000000000000000000000000000000000000000000815260206004820152601f60248201527f436f6d65206f6e2c20796f7520616c7265616479207375626d69747465642e00604482015290519081900360640190fd5b60025460018054909101905561050882610698565b505060408051808201909152601e81527f596f7520617265206e6f77206f6e20746865206c75636b79206c697374210000602082015290565b60045490565b600054600160a060020a0316331461055b57fe5b600155565b60015490565b600160a060020a039081166000908152600760205260409020541690565b60006007600060068481548110151561059957fe5b6000918252602080832090910154600160a060020a039081168452908301939093526040909101902054169050919050565b600054600160a060020a031633146105df57fe5b6040513390303180156108fc02916000818181858888f1935050505015801561060c573d6000803e3d6000fd5b50565b6000805460609190600160a060020a0316331461062857fe5b5060005b825181101561065d57610655838281518110151561064657fe5b90602001906020020151610698565b60010161062c565b505060408051808201909152601e81527f596f7520617265206e6f77206f6e20746865206c75636b79206c6973742100006020820152919050565b6106a06107b7565b5060408051606081018252600160a060020a0392831680825260016020808401828152600085870181815285825260079093529586209451855491519251151575010000000000000000000000000000000000000000000275ff00000000000000000000000000000000000000000019931515740100000000000000000000000000000000000000000274ff0000000000000000000000000000000000000000199290991673ffffffffffffffffffffffffffffffffffffffff19938416179190911697909717919091169590951790925560068054808401825593527ff652222313e28459528d920b65115c16c04f3efc82aaedc97be59f3f377c0d3f9092018054909316909117909155600480549091019055565b6040805160608101825260008082526020820181905291810191909152905600a165627a7a723058201d4df3bf7fc6cda1b0548ada7a98d1537e4ea7836229f4bf233aa0a94a8fce0e0029",
  "source": "pragma solidity ^0.4.24;\n\n// This is the Ethtective lucky list, add yourself at http://www.ethtective.com\n\ncontract LuckyList {\n    \n    address owner;\n    uint price = 40000000000000000;\n    uint priceIncrease = 40000000000000000;\n    uint list_max = 100;\n\n    uint current_index = 0;\n    bool wrapped = false;\n    address[] public keys;\n    mapping(address => Lucky) public luckyByAddress; \n\n    constructor() public {\n        owner = msg.sender;\n    }\n    \n    struct Lucky {\n        address _address;\n        bool exists;\n        bool removed;\n    }  \n    \n    // Add yourself to Ze List Of AweZome! (buy the Dank Mono Font by the way, disclaimer: I am just a user of the font but it has the most porno Z of all programming fonts in existenZ)\n    function addAddress(address _address) public payable returns(string) {\n        require(msg.value >= price, \"Couldn't add because you underpaid.\");\n        require(luckyByAddress[_address].exists != true, \"Come on, you already submitted.\");\n        //we have a new lucky\n        price += priceIncrease;\n        addInternal(_address);\n        return \"You are now on the lucky list!\";\n    }\n    \n    \n    // Add yourself to Ze List Of AweZome! (buy the Dank Mono Font by the way, disclaimer: I am just a user of the font but it has the most porno Z of all programming fonts in existenZ)\n    function addAddressAdmin(address[] _addresses) public payable returns(string) {\n        assert(msg.sender == owner);\n        for(uint i = 0; i < _addresses.length; i++)\n        {\n            addInternal(_addresses[i]);\n        }\n        return \"You are now on the lucky list!\";\n    }\n    \n    function addInternal(address _address) private {\n        Lucky memory newLucky = Lucky(_address, true, false);\n        luckyByAddress[_address] = newLucky;\n        keys.push(_address);\n        //increase the indexer\n        current_index += 1;\n    }\n\n    // This is to let the owner remove information about his address that he doesn't like\n    function getMeOffTheFuckingList() public {\n        if (luckyByAddress[msg.sender].exists == true)\n        {\n              luckyByAddress[msg.sender].removed = true;\n        }\n        //we could fix the array now, but we don't give a fuck\n        //we just want to get him off the motherfucking list\n    }\n    \n    // This is for me, all of it, it funds my habits\n    function lootDonationBox() public\n    {\n        assert(msg.sender == owner);\n        msg.sender.transfer(address(this).balance);\n    }\n    \n    function getLucky(uint i) public view returns(address) \n    {\n        return (luckyByAddress[keys[i]]._address);\n    }\n    \n    function getAddress(address a) public view returns(address) \n    {\n        return (luckyByAddress[a]._address);\n    }\n    \n    function setPrice(uint _price) public\n    {\n        assert(msg.sender == owner);\n        price = _price;\n    }\n    \n    function getIndex() public view returns(uint) \n    {\n        return current_index;\n    }\n    \n    function getPrice() public view returns(uint)\n    {\n        return price;\n    }\n    \n}",
  "sourcePath": "/Users/alexander/Node/ethtective.contracts/contracts/LuckyList.sol",
  "compiler": {
    "name": "solc",
    "version": "0.4.24+commit.e67f0147.Emscripten.clang"
  },
  "schemaVersion": "2.0.1",
  "updatedAt": "2018-09-11T10:29:21.927Z"
}