{
  "contractName": "MetaDataStorage",
  "abi": [
    {
      "constant": true,
      "inputs": [
        {
          "name": "_interfaceId",
          "type": "bytes4"
        }
      ],
      "name": "supportsInterface",
      "outputs": [
        {
          "name": "",
          "type": "bool"
        }
      ],
      "payable": false,
      "stateMutability": "view",
      "type": "function"
    },
    {
      "constant": true,
      "inputs": [],
      "name": "name",
      "outputs": [
        {
          "name": "",
          "type": "string"
        }
      ],
      "payable": false,
      "stateMutability": "view",
      "type": "function"
    },
    {
      "constant": true,
      "inputs": [
        {
          "name": "_tokenId",
          "type": "uint256"
        }
      ],
      "name": "getApproved",
      "outputs": [
        {
          "name": "",
          "type": "address"
        }
      ],
      "payable": false,
      "stateMutability": "view",
      "type": "function"
    },
    {
      "constant": false,
      "inputs": [
        {
          "name": "_to",
          "type": "address"
        },
        {
          "name": "_tokenId",
          "type": "uint256"
        }
      ],
      "name": "approve",
      "outputs": [],
      "payable": false,
      "stateMutability": "nonpayable",
      "type": "function"
    },
    {
      "constant": true,
      "inputs": [
        {
          "name": "",
          "type": "uint256"
        }
      ],
      "name": "keys",
      "outputs": [
        {
          "name": "",
          "type": "address"
        }
      ],
      "payable": false,
      "stateMutability": "view",
      "type": "function"
    },
    {
      "constant": true,
      "inputs": [],
      "name": "totalSupply",
      "outputs": [
        {
          "name": "",
          "type": "uint256"
        }
      ],
      "payable": false,
      "stateMutability": "view",
      "type": "function"
    },
    {
      "constant": true,
      "inputs": [],
      "name": "InterfaceId_ERC165",
      "outputs": [
        {
          "name": "",
          "type": "bytes4"
        }
      ],
      "payable": false,
      "stateMutability": "view",
      "type": "function"
    },
    {
      "constant": false,
      "inputs": [
        {
          "name": "_from",
          "type": "address"
        },
        {
          "name": "_to",
          "type": "address"
        },
        {
          "name": "_tokenId",
          "type": "uint256"
        }
      ],
      "name": "transferFrom",
      "outputs": [],
      "payable": false,
      "stateMutability": "nonpayable",
      "type": "function"
    },
    {
      "constant": true,
      "inputs": [
        {
          "name": "_owner",
          "type": "address"
        },
        {
          "name": "_index",
          "type": "uint256"
        }
      ],
      "name": "tokenOfOwnerByIndex",
      "outputs": [
        {
          "name": "",
          "type": "uint256"
        }
      ],
      "payable": false,
      "stateMutability": "view",
      "type": "function"
    },
    {
      "constant": false,
      "inputs": [
        {
          "name": "_from",
          "type": "address"
        },
        {
          "name": "_to",
          "type": "address"
        },
        {
          "name": "_tokenId",
          "type": "uint256"
        }
      ],
      "name": "safeTransferFrom",
      "outputs": [],
      "payable": false,
      "stateMutability": "nonpayable",
      "type": "function"
    },
    {
      "constant": true,
      "inputs": [
        {
          "name": "_tokenId",
          "type": "uint256"
        }
      ],
      "name": "exists",
      "outputs": [
        {
          "name": "",
          "type": "bool"
        }
      ],
      "payable": false,
      "stateMutability": "view",
      "type": "function"
    },
    {
      "constant": true,
      "inputs": [
        {
          "name": "_index",
          "type": "uint256"
        }
      ],
      "name": "tokenByIndex",
      "outputs": [
        {
          "name": "",
          "type": "uint256"
        }
      ],
      "payable": false,
      "stateMutability": "view",
      "type": "function"
    },
    {
      "constant": true,
      "inputs": [
        {
          "name": "_tokenId",
          "type": "uint256"
        }
      ],
      "name": "ownerOf",
      "outputs": [
        {
          "name": "",
          "type": "address"
        }
      ],
      "payable": false,
      "stateMutability": "view",
      "type": "function"
    },
    {
      "constant": true,
      "inputs": [
        {
          "name": "_owner",
          "type": "address"
        }
      ],
      "name": "balanceOf",
      "outputs": [
        {
          "name": "",
          "type": "uint256"
        }
      ],
      "payable": false,
      "stateMutability": "view",
      "type": "function"
    },
    {
      "constant": true,
      "inputs": [
        {
          "name": "",
          "type": "address"
        }
      ],
      "name": "adresses",
      "outputs": [
        {
          "name": "_address",
          "type": "address"
        },
        {
          "name": "_name",
          "type": "string"
        },
        {
          "name": "_ipfs",
          "type": "string"
        }
      ],
      "payable": false,
      "stateMutability": "view",
      "type": "function"
    },
    {
      "constant": true,
      "inputs": [],
      "name": "symbol",
      "outputs": [
        {
          "name": "",
          "type": "string"
        }
      ],
      "payable": false,
      "stateMutability": "view",
      "type": "function"
    },
    {
      "constant": false,
      "inputs": [
        {
          "name": "_to",
          "type": "address"
        },
        {
          "name": "_approved",
          "type": "bool"
        }
      ],
      "name": "setApprovalForAll",
      "outputs": [],
      "payable": false,
      "stateMutability": "nonpayable",
      "type": "function"
    },
    {
      "constant": true,
      "inputs": [
        {
          "name": "",
          "type": "uint256"
        }
      ],
      "name": "history",
      "outputs": [
        {
          "name": "_address",
          "type": "address"
        },
        {
          "name": "_name",
          "type": "string"
        },
        {
          "name": "_ipfs",
          "type": "string"
        }
      ],
      "payable": false,
      "stateMutability": "view",
      "type": "function"
    },
    {
      "constant": false,
      "inputs": [
        {
          "name": "_from",
          "type": "address"
        },
        {
          "name": "_to",
          "type": "address"
        },
        {
          "name": "_tokenId",
          "type": "uint256"
        },
        {
          "name": "_data",
          "type": "bytes"
        }
      ],
      "name": "safeTransferFrom",
      "outputs": [],
      "payable": false,
      "stateMutability": "nonpayable",
      "type": "function"
    },
    {
      "constant": true,
      "inputs": [
        {
          "name": "_tokenId",
          "type": "uint256"
        }
      ],
      "name": "tokenURI",
      "outputs": [
        {
          "name": "",
          "type": "string"
        }
      ],
      "payable": false,
      "stateMutability": "view",
      "type": "function"
    },
    {
      "constant": true,
      "inputs": [
        {
          "name": "_owner",
          "type": "address"
        },
        {
          "name": "_operator",
          "type": "address"
        }
      ],
      "name": "isApprovedForAll",
      "outputs": [
        {
          "name": "",
          "type": "bool"
        }
      ],
      "payable": false,
      "stateMutability": "view",
      "type": "function"
    },
    {
      "inputs": [],
      "payable": false,
      "stateMutability": "nonpayable",
      "type": "constructor"
    },
    {
      "anonymous": false,
      "inputs": [
        {
          "indexed": false,
          "name": "_address",
          "type": "address"
        },
        {
          "indexed": false,
          "name": "_name",
          "type": "string"
        },
        {
          "indexed": false,
          "name": "_index",
          "type": "uint256"
        }
      ],
      "name": "Submission",
      "type": "event"
    },
    {
      "anonymous": false,
      "inputs": [
        {
          "indexed": true,
          "name": "_from",
          "type": "address"
        },
        {
          "indexed": true,
          "name": "_to",
          "type": "address"
        },
        {
          "indexed": true,
          "name": "_tokenId",
          "type": "uint256"
        }
      ],
      "name": "Transfer",
      "type": "event"
    },
    {
      "anonymous": false,
      "inputs": [
        {
          "indexed": true,
          "name": "_owner",
          "type": "address"
        },
        {
          "indexed": true,
          "name": "_approved",
          "type": "address"
        },
        {
          "indexed": true,
          "name": "_tokenId",
          "type": "uint256"
        }
      ],
      "name": "Approval",
      "type": "event"
    },
    {
      "anonymous": false,
      "inputs": [
        {
          "indexed": true,
          "name": "_owner",
          "type": "address"
        },
        {
          "indexed": true,
          "name": "_operator",
          "type": "address"
        },
        {
          "indexed": false,
          "name": "_approved",
          "type": "bool"
        }
      ],
      "name": "ApprovalForAll",
      "type": "event"
    },
    {
      "constant": false,
      "inputs": [
        {
          "name": "_address",
          "type": "address"
        },
        {
          "name": "_name",
          "type": "string"
        },
        {
          "name": "_ipfs",
          "type": "string"
        }
      ],
      "name": "addAddress",
      "outputs": [
        {
          "name": "",
          "type": "string"
        }
      ],
      "payable": true,
      "stateMutability": "payable",
      "type": "function"
    },
    {
      "constant": false,
      "inputs": [
        {
          "name": "_address",
          "type": "address"
        },
        {
          "name": "_name",
          "type": "string"
        },
        {
          "name": "_ipfs",
          "type": "string"
        }
      ],
      "name": "addByOwner",
      "outputs": [],
      "payable": false,
      "stateMutability": "nonpayable",
      "type": "function"
    },
    {
      "constant": false,
      "inputs": [
        {
          "name": "_original",
          "type": "address"
        }
      ],
      "name": "populate",
      "outputs": [],
      "payable": false,
      "stateMutability": "nonpayable",
      "type": "function"
    },
    {
      "constant": false,
      "inputs": [],
      "name": "getMeOffTheFuckingList",
      "outputs": [],
      "payable": false,
      "stateMutability": "nonpayable",
      "type": "function"
    },
    {
      "constant": false,
      "inputs": [],
      "name": "lootDonationBox",
      "outputs": [],
      "payable": false,
      "stateMutability": "nonpayable",
      "type": "function"
    },
    {
      "constant": true,
      "inputs": [
        {
          "name": "i",
          "type": "uint256"
        }
      ],
      "name": "getByIndex",
      "outputs": [
        {
          "name": "",
          "type": "address"
        },
        {
          "name": "",
          "type": "string"
        },
        {
          "name": "",
          "type": "string"
        }
      ],
      "payable": false,
      "stateMutability": "view",
      "type": "function"
    },
    {
      "constant": true,
      "inputs": [
        {
          "name": "a",
          "type": "address"
        }
      ],
      "name": "getByAddress",
      "outputs": [
        {
          "name": "",
          "type": "address"
        },
        {
          "name": "",
          "type": "string"
        },
        {
          "name": "",
          "type": "string"
        }
      ],
      "payable": false,
      "stateMutability": "view",
      "type": "function"
    },
    {
      "constant": false,
      "inputs": [
        {
          "name": "_price",
          "type": "uint256"
        }
      ],
      "name": "setPrice",
      "outputs": [],
      "payable": false,
      "stateMutability": "nonpayable",
      "type": "function"
    },
    {
      "constant": true,
      "inputs": [],
      "name": "getPrice",
      "outputs": [
        {
          "name": "",
          "type": "uint256"
        }
      ],
      "payable": false,
      "stateMutability": "view",
      "type": "function"
    },
    {
      "constant": true,
      "inputs": [],
      "name": "getCurrentIndex",
      "outputs": [
        {
          "name": "",
          "type": "uint256"
        }
      ],
      "payable": false,
      "stateMutability": "view",
      "type": "function"
    },
    {
      "constant": false,
      "inputs": [
        {
          "name": "_to",
          "type": "address"
        },
        {
          "name": "_tokenId",
          "type": "uint256"
        },
        {
          "name": "_tokenURI",
          "type": "string"
        }
      ],
      "name": "mintUniqueTokenTo",
      "outputs": [],
      "payable": false,
      "stateMutability": "nonpayable",
      "type": "function"
    }
  ],
  "bytecode": "0x6080604052662e2f6e5e148000600d556000600e553480156200002157600080fd5b5060608080806200005b7f01ffc9a700000000000000000000000000000000000000000000000000000000640100000000620001d7810204565b6200008f7f80ac58cd00000000000000000000000000000000000000000000000000000000640100000000620001d7810204565b620000c37f4f558e7900000000000000000000000000000000000000000000000000000000640100000000620001d7810204565b8151620000d890600590602085019062000244565b508051620000ee90600690602084019062000244565b50620001237f780e9d6300000000000000000000000000000000000000000000000000000000640100000000620001d7810204565b620001577f5b5e139f00000000000000000000000000000000000000000000000000000000640100000000620001d7810204565b5050600c8054600160a060020a031916331790555050604080518082018252601581527f4d6574616461746120546f6b656e20486f6c64657200000000000000000000006020918201528151808301909252600482527f4d45544800000000000000000000000000000000000000000000000000000000910152620002e9565b7fffffffff0000000000000000000000000000000000000000000000000000000080821614156200020757600080fd5b7fffffffff00000000000000000000000000000000000000000000000000000000166000908152602081905260409020805460ff19166001179055565b828054600181600116156101000203166002900490600052602060002090601f016020900481019282601f106200028757805160ff1916838001178555620002b7565b82800160010185558215620002b7579182015b82811115620002b75782518255916020019190600101906200029a565b50620002c5929150620002c9565b5090565b620002e691905b80821115620002c55760008155600101620002d0565b90565b611f2680620002f96000396000f30060806040526004361061017c5763ffffffff60e060020a60003504166301ffc9a78114610181578063063d4972146101b757806306fdde03146101ce578063081812fc14610258578063095ea7b31461028c5780630cb6aaf1146102b05780630d9005ae146102c857806318160ddd146102ef57806319fa8f501461030457806323b872dd1461033657806326dd860a146103605780632d883a73146103c95780632f745c59146104d857806330257bf7146104fc57806342842e0e1461051d5780634f558e79146105475780634f6ccce71461055f5780636352211e146105775780636dd77d421461058f57806370a08231146105b05780638ac3aaf9146105d157806390e0c7f9146105f257806391b7f5ed1461069757806395d89b41146106af57806398d5fdca146106c4578063a22cb465146106d9578063a7a38f0b146106ff578063b88d4fde14610717578063c87b56dd14610786578063c97806f41461079e578063e0136ea9146107b3578063e985e9c51461084b575b600080fd5b34801561018d57600080fd5b506101a3600160e060020a031960043516610872565b604080519115158252519081900360200190f35b3480156101c357600080fd5b506101cc610891565b005b3480156101da57600080fd5b506101e36108ce565b6040805160208082528351818301528351919283929083019185019080838360005b8381101561021d578181015183820152602001610205565b50505050905090810190601f16801561024a5780820380516001836020036101000a031916815260200191505b509250505060405180910390f35b34801561026457600080fd5b50610270600435610965565b60408051600160a060020a039092168252519081900360200190f35b34801561029857600080fd5b506101cc600160a060020a0360043516602435610980565b3480156102bc57600080fd5b50610270600435610a29565b3480156102d457600080fd5b506102dd610a51565b60408051918252519081900360200190f35b3480156102fb57600080fd5b506102dd610a57565b34801561031057600080fd5b50610319610a5d565b60408051600160e060020a03199092168252519081900360200190f35b34801561034257600080fd5b506101cc600160a060020a0360043581169060243516604435610a81565b34801561036c57600080fd5b50604080516020600460443581810135601f81018490048402850184019095528484526101cc948235600160a060020a0316946024803595369594606494920191908190840183828082843750949750610b249650505050505050565b3480156103d557600080fd5b506103e1600435610b3d565b6040518084600160a060020a0316600160a060020a031681526020018060200180602001838103835285818151815260200191508051906020019080838360005b8381101561043a578181015183820152602001610422565b50505050905090810190601f1680156104675780820380516001836020036101000a031916815260200191505b50838103825284518152845160209182019186019080838360005b8381101561049a578181015183820152602001610482565b50505050905090810190601f1680156104c75780820380516001836020036101000a031916815260200191505b509550505050505060405180910390f35b3480156104e457600080fd5b506102dd600160a060020a0360043516602435610d38565b34801561050857600080fd5b506103e1600160a060020a0360043516610d85565b34801561052957600080fd5b506101cc600160a060020a0360043581169060243516604435610e12565b34801561055357600080fd5b506101a3600435610e2e565b34801561056b57600080fd5b506102dd600435610e4b565b34801561058357600080fd5b50610270600435610e80565b34801561059b57600080fd5b506101cc600160a060020a0360043516610eaa565b3480156105bc57600080fd5b506102dd600160a060020a036004351661108c565b3480156105dd57600080fd5b506103e1600160a060020a03600435166110bf565b3480156105fe57600080fd5b5060408051602060046024803582810135601f81018590048502860185019096528585526101cc958335600160a060020a031695369560449491939091019190819084018382808284375050604080516020601f89358b018035918201839004830284018301909452808352979a9998810197919650918201945092508291508401838280828437509497506112059650505050505050565b3480156106a357600080fd5b506101cc600435611231565b3480156106bb57600080fd5b506101e361124a565b3480156106d057600080fd5b506102dd6112ab565b3480156106e557600080fd5b506101cc600160a060020a036004351660243515156112b1565b34801561070b57600080fd5b506103e1600435611335565b34801561072357600080fd5b50604080516020601f6064356004818101359283018490048402850184019095528184526101cc94600160a060020a0381358116956024803590921695604435953695608494019181908401838280828437509497506113b49650505050505050565b34801561079257600080fd5b506101e36004356113dc565b3480156107aa57600080fd5b506101cc611491565b60408051602060046024803582810135601f81018590048502860185019096528585526101e3958335600160a060020a031695369560449491939091019190819084018382808284375050604080516020601f89358b018035918201839004830284018301909452808352979a9998810197919650918201945092508291508401838280828437509497506114d59650505050505050565b34801561085757600080fd5b506101a3600160a060020a0360043581169060243516611613565b600160e060020a03191660009081526020819052604090205460ff1690565b3360009081526011602052604081208054600160a060020a0319168155906108bc6001830182611dcf565b6108ca600283016000611dcf565b5050565b60058054604080516020601f600260001961010060018816150201909516949094049384018190048102820181019092528281526060939092909183018282801561095a5780601f1061092f5761010080835404028352916020019161095a565b820191906000526020600020905b81548152906001019060200180831161093d57829003601f168201915b505050505090505b90565b600090815260026020526040902054600160a060020a031690565b600061098b82610e80565b9050600160a060020a0383811690821614156109a657600080fd5b33600160a060020a03821614806109c257506109c28133611613565b15156109cd57600080fd5b6000828152600260205260408082208054600160a060020a031916600160a060020a0387811691821790925591518593918516917f8c5be1e5ebec7d5bd14f71427d1e84f3dd0314c0f7b2291e5b200ac8c7c3b92591a4505050565b600f805482908110610a3757fe5b600091825260209091200154600160a060020a0316905081565b600e5490565b60095490565b7f01ffc9a70000000000000000000000000000000000000000000000000000000081565b610a8b3382611641565b1515610a9657600080fd5b600160a060020a0383161515610aab57600080fd5b600160a060020a0382161515610ac057600080fd5b610aca83826116a0565b610ad48382611702565b610ade8282611809565b8082600160a060020a031684600160a060020a03167fddf252ad1be2c89b69c2b068fc378daa952ba7f163c4a11628f55a4df523b3ef60405160405180910390a4505050565b610b2e8383611852565b610b3882826118a1565b505050565b600060608060116000600f86815481101515610b5557fe5b6000918252602080832090910154600160a060020a039081168452908301939093526040909101812054600f805491909316926011929188908110610b9657fe5b9060005260206000200160009054906101000a9004600160a060020a0316600160a060020a0316600160a060020a0316815260200190815260200160002060010160116000600f88815481101515610bea57fe5b6000918252602080832090910154600160a060020a03168352828101939093526040918201902083548251601f60026000196001851615610100020190931683900490810186900486028201860190945283815291019290918491830182828015610c965780601f10610c6b57610100808354040283529160200191610c96565b820191906000526020600020905b815481529060010190602001808311610c7957829003601f168201915b5050845460408051602060026001851615610100026000190190941693909304601f810184900484028201840190925281815295975086945092508401905082828015610d245780601f10610cf957610100808354040283529160200191610d24565b820191906000526020600020905b815481529060010190602001808311610d0757829003601f168201915b505050505090509250925092509193909250565b6000610d438361108c565b8210610d4e57600080fd5b600160a060020a0383166000908152600760205260409020805483908110610d7257fe5b9060005260206000200154905092915050565b600160a060020a03818116600090815260116020908152604080832080546001808301805485516002610100948316159490940260001901909116839004601f810188900488028201880190965285815296976060978897949091169591949290920192849190830182828015610c965780601f10610c6b57610100808354040283529160200191610c96565b610b3883838360206040519081016040528060008152506113b4565b600090815260016020526040902054600160a060020a0316151590565b6000610e55610a57565b8210610e6057600080fd5b6009805483908110610e6e57fe5b90600052602060002001549050919050565b600081815260016020526040812054600160a060020a0316801515610ea457600080fd5b92915050565b600c54600090819081906060908190600160a060020a03163314610eca57fe5b859450600093505b84600160a060020a0316630d9005ae6040518163ffffffff1660e060020a028152600401602060405180830381600087803b158015610f1057600080fd5b505af1158015610f24573d6000803e3d6000fd5b505050506040513d6020811015610f3a57600080fd5b50518410156110845784600160a060020a0316632d883a73856040518263ffffffff1660e060020a02815260040180828152602001915050600060405180830381600087803b158015610f8c57600080fd5b505af1158015610fa0573d6000803e3d6000fd5b505050506040513d6000823e601f3d908101601f191682016040526060811015610fc957600080fd5b815160208301805191939283019291640100000000811115610fea57600080fd5b82016020810184811115610ffd57600080fd5b815164010000000081118282018710171561101757600080fd5b5050929190602001805164010000000081111561103357600080fd5b8201602081018481111561104657600080fd5b815164010000000081118282018710171561106057600080fd5b50509291905050509250925092506110798383836118d4565b600190930192610ed2565b505050505050565b6000600160a060020a03821615156110a357600080fd5b50600160a060020a031660009081526003602052604090205490565b6011602090815260009182526040918290208054600180830180548651600261010094831615949094026000190190911692909204601f8101869004860283018601909652858252600160a060020a039092169492939092908301828280156111695780601f1061113e57610100808354040283529160200191611169565b820191906000526020600020905b81548152906001019060200180831161114c57829003601f168201915b50505060028085018054604080516020601f60001961010060018716150201909416959095049283018590048502810185019091528181529596959450909250908301828280156111fb5780601f106111d0576101008083540402835291602001916111fb565b820191906000526020600020905b8154815290600101906020018083116111de57829003601f168201915b5050505050905083565b600c54600160a060020a0316331461121957fe5b61122633600e5484610b24565b610b388383836118d4565b600c54600160a060020a0316331461124557fe5b600d55565b60068054604080516020601f600260001961010060018816150201909516949094049384018190048102820181019092528281526060939092909183018282801561095a5780601f1061092f5761010080835404028352916020019161095a565b600d5490565b600160a060020a0382163314156112c757600080fd5b336000818152600460209081526040808320600160a060020a03871680855290835292819020805460ff1916861515908117909155815190815290519293927f17307eab39ab6107e8899845ad3d59bd9653f200f220920489ca2b5937696c31929181900390910190a35050565b6010602090815260009182526040918290208054600180830180548651600261010094831615949094026000190190911692909204601f8101869004860283018601909652858252600160a060020a039092169492939092908301828280156111695780601f1061113e57610100808354040283529160200191611169565b6113bf848484610a81565b6113cb84848484611ad4565b15156113d657600080fd5b50505050565b60606113e782610e2e565b15156113f257600080fd5b6000828152600b602090815260409182902080548351601f6002600019610100600186161502019093169290920491820184900484028101840190945280845290918301828280156114855780601f1061145a57610100808354040283529160200191611485565b820191906000526020600020905b81548152906001019060200180831161146857829003601f168201915b50505050509050919050565b600c54600160a060020a031633146114a557fe5b6040513390303180156108fc02916000818181858888f193505050501580156114d2573d6000803e3d6000fd5b50565b600d5460609034101561156f57604080517f08c379a000000000000000000000000000000000000000000000000000000000815260206004820152602260248201527f436f756c646e277420616464206265636175736520796f7520756e646572706160448201527f6964000000000000000000000000000000000000000000000000000000000000606482015290519081900360840190fd5b61157c33600e5485610b24565b6115878484846118d4565b608060405190810160405280605681526020017f596f7520617265206e6f77206f6e20746865204d65746144617461206c69737481526020017f2c20616e6420796f7520686176652061207368696e79206375726174696f6e2081526020017f746f6b656e20746f2073686f7720666f7220697421210000000000000000000081525090509392505050565b600160a060020a03918216600090815260046020908152604080832093909416825291909152205460ff1690565b60008061164d83610e80565b905080600160a060020a031684600160a060020a03161480611688575083600160a060020a031661167d84610965565b600160a060020a0316145b8061169857506116988185611613565b949350505050565b81600160a060020a03166116b382610e80565b600160a060020a0316146116c657600080fd5b600081815260026020526040902054600160a060020a0316156108ca5760009081526002602052604090208054600160a060020a031916905550565b60008060006117118585611c41565b600084815260086020908152604080832054600160a060020a038916845260079092529091205490935061174c90600163ffffffff611cca16565b600160a060020a03861660009081526007602052604090208054919350908390811061177457fe5b90600052602060002001549050806007600087600160a060020a0316600160a060020a03168152602001908152602001600020848154811015156117b457fe5b6000918252602080832090910192909255600160a060020a03871681526007909152604090208054906117eb906000198301611e13565b50600093845260086020526040808520859055908452909220555050565b60006118158383611cdc565b50600160a060020a039091166000908152600760209081526040808320805460018101825590845282842081018590559383526008909152902055565b61185c8282611d5f565b600980546000838152600a60205260408120829055600182018355919091527f6e1540171b6c0c960b71a7020d9f60077f6af931a8bbf590da0223dacf75c7af015550565b6118aa82610e2e565b15156118b557600080fd5b6000828152600b602090815260409091208251610b3892840190611e37565b6118dc611eb5565b5060408051606081018252600160a060020a0385811680835260208084018781528486018790526000928352601182529490912083518154600160a060020a0319169316929092178255925180519293849361193e9260018501920190611e37565b506040820151805161195a916002840191602090910190611e37565b5050600e54600090815260106020908152604090912083518154600160a060020a031916600160a060020a0390911617815583820151805185945091926119a992600185019290910190611e37565b50604082015180516119c5916002840191602090910190611e37565b5050600f805460018101825560009182527f8d1108e10bcb7c27dddfc02ed9d693a074039d026cf4ea4240b40f7d581ac802018054600160a060020a031916600160a060020a038816908117909155600e546040805192835282018190526060602080840182815289519285019290925288517f4cb5362192db1b50dce1c98effac80930a5e24d350690005edef99f290c65f0b96508a958a9593926080850192908701918190849084905b83811015611a89578181015183820152602001611a71565b50505050905090810190601f168015611ab65780820380516001836020036101000a031916815260200191505b5094505050505060405180910390a15050600e805460010190555050565b600080611ae985600160a060020a0316611dba565b1515611af85760019150611c38565b6040517f150b7a020000000000000000000000000000000000000000000000000000000081523360048201818152600160a060020a03898116602485015260448401889052608060648501908152875160848601528751918a169463150b7a0294938c938b938b93909160a490910190602085019080838360005b83811015611b8b578181015183820152602001611b73565b50505050905090810190601f168015611bb85780820380516001836020036101000a031916815260200191505b5095505050505050602060405180830381600087803b158015611bda57600080fd5b505af1158015611bee573d6000803e3d6000fd5b505050506040513d6020811015611c0457600080fd5b5051600160e060020a031981167f150b7a020000000000000000000000000000000000000000000000000000000014925090505b50949350505050565b81600160a060020a0316611c5482610e80565b600160a060020a031614611c6757600080fd5b600160a060020a038216600090815260036020526040902054611c9190600163ffffffff611cca16565b600160a060020a039092166000908152600360209081526040808320949094559181526001909152208054600160a060020a0319169055565b600082821115611cd657fe5b50900390565b600081815260016020526040902054600160a060020a031615611cfe57600080fd5b60008181526001602081815260408084208054600160a060020a031916600160a060020a0388169081179091558452600390915290912054611d3f91611dc2565b600160a060020a0390921660009081526003602052604090209190915550565b600160a060020a0382161515611d7457600080fd5b611d7e8282611809565b6040518190600160a060020a038416906000907fddf252ad1be2c89b69c2b068fc378daa952ba7f163c4a11628f55a4df523b3ef908290a45050565b6000903b1190565b81810182811015610ea457fe5b50805460018160011615610100020316600290046000825580601f10611df557506114d2565b601f0160209004906000526020600020908101906114d29190611ee0565b815481835581811115610b3857600083815260209020610b38918101908301611ee0565b828054600181600116156101000203166002900490600052602060002090601f016020900481019282601f10611e7857805160ff1916838001178555611ea5565b82800160010185558215611ea5579182015b82811115611ea5578251825591602001919060010190611e8a565b50611eb1929150611ee0565b5090565b6060604051908101604052806000600160a060020a0316815260200160608152602001606081525090565b61096291905b80821115611eb15760008155600101611ee65600a165627a7a72305820f491b5e5c290f0f679a17071e8a145faadcdeb5e8ce1a454b0c10e1af7d2bf7d0029",
  "source": "pragma solidity ^0.4.24;\n\nimport \"../node_modules/openzeppelin-solidity/contracts/token/ERC721/ERC721Token.sol\";\n\n// This is the Ethtective MetaData Cafe contract, add your own metametametadata at http://cafe.ethtective.com\n\ncontract MetaDataStorage is ERC721Token {\n    \n    address owner;\n    uint price = 13000000000000000;\n\n    uint currentIndex = 0;\n    address[] public keys;\n    mapping(uint => MetaData) public history; \n    mapping(address => MetaData) public adresses; \n\n    event Submission (\n        address _address,\n        string _name,\n        uint _index\n    );\n\n    constructor() public ERC721Token(_name, _symbol) {\n        owner = msg.sender;\n        string memory _name = \"Metadata Token Holder\";\n        string memory _symbol = \"METH\";\n    }\n    \n    struct MetaData {\n        address _address;\n        string _name;\n        string _ipfs;\n    }  \n    \n    // Add yourself to Ze List Of AweZome! (buy the Dank Mono Font by the way, disclaimer: I am just a user of the font but it has the most porno Z of all programming fonts in existenZ)\n    function addAddress(address _address, string _name, string _ipfs) public payable returns(string) {\n        require(msg.value >= price, \"Couldn't add because you underpaid\");\n        mintUniqueTokenTo(msg.sender, currentIndex, _name);\n        addInternal(_address, _name, _ipfs);\n        return \"You are now on the MetaData list, and you have a shiny curation token to show for it!!\";\n    }\n\n    function addByOwner(address _address, string _name, string _ipfs) public {\n        assert(msg.sender == owner);\n        mintUniqueTokenTo(msg.sender, currentIndex, _name);\n        addInternal(_address, _name, _ipfs);\n    }\n\n    function addInternal(address _address, string _name, string _ipfs) private {\n        MetaData memory newData = MetaData(_address, _name, _ipfs);\n        //we have a new MetaData\n        adresses[_address] = newData;\n        history[currentIndex] = newData;\n        //add address to keys LUT\n        keys.push(_address);\n        //increase the indexer\n        emit Submission(_address, _name, currentIndex);\n        currentIndex += 1;\n    }\n\n    function populate(address _original) public {\n        assert(msg.sender == owner);\n        MetaDataStorage original = MetaDataStorage(_original);\n        for(uint i=0; i<original.getCurrentIndex(); i++)\n        {\n            (address _address,string memory _name,string memory _ipfs) = original.getByIndex(i);\n            addInternal(_address,_name,_ipfs);\n        }\n    }\n\n    // This is to let the owner remove information about his address that he doesn't like, receives a small refund for his efforts and the sad fact that he's not on the list anymore\n    function getMeOffTheFuckingList() public {\n        delete adresses[msg.sender];\n    }\n    \n    // This is for me, all of it, it funds my habits\n    function lootDonationBox() public\n    {\n        assert(msg.sender == owner);\n        msg.sender.transfer(address(this).balance);\n    }\n    \n    function getByIndex(uint i) public view returns(address, string, string) \n    {\n        return (adresses[keys[i]]._address, adresses[keys[i]]._name, adresses[keys[i]]._ipfs);\n    }\n    \n    function getByAddress(address a) public view returns(address, string, string) \n    {\n        return (adresses[a]._address, adresses[a]._name, adresses[a]._ipfs);\n    }\n    \n    function setPrice(uint _price) public\n    {\n        assert(msg.sender == owner);\n        price = _price;\n    }\n    \n    function getPrice() public view returns(uint)\n    {\n        return price;\n    }\n\n    function getCurrentIndex() public view returns(uint) {\n        return currentIndex;\n    }\n\n    function mintUniqueTokenTo(\n        address _to,\n        uint256 _tokenId,\n        string  _tokenURI\n    ) public\n    {\n        super._mint(_to, _tokenId);\n        super._setTokenURI(_tokenId, _tokenURI);\n    }\n    \n}",
  "sourcePath": "/Users/alexander/Node/ethtective.contracts/contracts/Ethtective20.sol",
  "compiler": {
    "name": "solc",
    "version": "0.4.24+commit.e67f0147.Emscripten.clang"
  },
  "schemaVersion": "2.0.1",
  "updatedAt": "2018-09-11T10:34:16.730Z"
}