{
  "contractName": "MetaDataController",
  "abi": [
    {
      "constant": true,
      "inputs": [
        {
          "name": "",
          "type": "uint256"
        }
      ],
      "name": "keys",
      "outputs": [
        {
          "name": "",
          "type": "address"
        }
      ],
      "payable": false,
      "stateMutability": "view",
      "type": "function"
    },
    {
      "constant": true,
      "inputs": [
        {
          "name": "",
          "type": "address"
        }
      ],
      "name": "adresses",
      "outputs": [
        {
          "name": "_address",
          "type": "address"
        },
        {
          "name": "_name",
          "type": "string"
        },
        {
          "name": "_logo_ipfs",
          "type": "string"
        }
      ],
      "payable": false,
      "stateMutability": "view",
      "type": "function"
    },
    {
      "inputs": [],
      "payable": false,
      "stateMutability": "nonpayable",
      "type": "constructor"
    },
    {
      "anonymous": false,
      "inputs": [
        {
          "indexed": false,
          "name": "_address",
          "type": "address"
        },
        {
          "indexed": false,
          "name": "_logo_ipfs",
          "type": "string"
        }
      ],
      "name": "SetData",
      "type": "event"
    },
    {
      "constant": false,
      "inputs": [
        {
          "name": "_address",
          "type": "address"
        },
        {
          "name": "_name",
          "type": "string"
        },
        {
          "name": "_logo_ipfs",
          "type": "string"
        }
      ],
      "name": "addAddress",
      "outputs": [
        {
          "name": "",
          "type": "string"
        }
      ],
      "payable": true,
      "stateMutability": "payable",
      "type": "function"
    },
    {
      "constant": false,
      "inputs": [
        {
          "name": "_address",
          "type": "address"
        },
        {
          "name": "_name",
          "type": "string"
        },
        {
          "name": "_logo_ipfs",
          "type": "string"
        }
      ],
      "name": "addByOwner",
      "outputs": [],
      "payable": false,
      "stateMutability": "nonpayable",
      "type": "function"
    },
    {
      "constant": false,
      "inputs": [],
      "name": "getMeOffTheFuckingList",
      "outputs": [],
      "payable": false,
      "stateMutability": "nonpayable",
      "type": "function"
    },
    {
      "constant": false,
      "inputs": [],
      "name": "lootDonationBox",
      "outputs": [],
      "payable": false,
      "stateMutability": "nonpayable",
      "type": "function"
    },
    {
      "constant": true,
      "inputs": [
        {
          "name": "i",
          "type": "uint256"
        }
      ],
      "name": "getByIndex",
      "outputs": [
        {
          "name": "",
          "type": "address"
        },
        {
          "name": "",
          "type": "string"
        },
        {
          "name": "",
          "type": "string"
        }
      ],
      "payable": false,
      "stateMutability": "view",
      "type": "function"
    },
    {
      "constant": true,
      "inputs": [
        {
          "name": "a",
          "type": "address"
        }
      ],
      "name": "getByAddress",
      "outputs": [
        {
          "name": "",
          "type": "address"
        },
        {
          "name": "",
          "type": "string"
        },
        {
          "name": "",
          "type": "string"
        }
      ],
      "payable": false,
      "stateMutability": "view",
      "type": "function"
    },
    {
      "constant": false,
      "inputs": [
        {
          "name": "_price",
          "type": "uint256"
        }
      ],
      "name": "setPrice",
      "outputs": [],
      "payable": false,
      "stateMutability": "nonpayable",
      "type": "function"
    },
    {
      "constant": true,
      "inputs": [],
      "name": "getPrice",
      "outputs": [
        {
          "name": "",
          "type": "uint256"
        }
      ],
      "payable": false,
      "stateMutability": "view",
      "type": "function"
    }
  ],
  "bytecode": "0x6080604052662386f26fc10000600155600060025534801561002057600080fd5b5060008054600160a060020a03191633179055610cf8806100426000396000f3006080604052600436106100a35763ffffffff7c0100000000000000000000000000000000000000000000000000000000600035041663063d497281146100a85780630cb6aaf1146100bf5780632d883a73146100f357806330257bf7146102025780638ac3aaf91461022357806390e0c7f91461024457806391b7f5ed146102e957806398d5fdca14610301578063c97806f414610328578063e0136ea91461033d575b600080fd5b3480156100b457600080fd5b506100bd61044a565b005b3480156100cb57600080fd5b506100d7600435610494565b60408051600160a060020a039092168252519081900360200190f35b3480156100ff57600080fd5b5061010b6004356104bc565b6040518084600160a060020a0316600160a060020a031681526020018060200180602001838103835285818151815260200191508051906020019080838360005b8381101561016457818101518382015260200161014c565b50505050905090810190601f1680156101915780820380516001836020036101000a031916815260200191505b50838103825284518152845160209182019186019080838360005b838110156101c45781810151838201526020016101ac565b50505050905090810190601f1680156101f15780820380516001836020036101000a031916815260200191505b509550505050505060405180910390f35b34801561020e57600080fd5b5061010b600160a060020a03600435166106b7565b34801561022f57600080fd5b5061010b600160a060020a0360043516610744565b34801561025057600080fd5b5060408051602060046024803582810135601f81018590048502860185019096528585526100bd958335600160a060020a031695369560449491939091019190819084018382808284375050604080516020601f89358b018035918201839004830284018301909452808352979a99988101979196509182019450925082915084018382808284375094975061088a9650505050505050565b3480156102f557600080fd5b506100bd6004356108ae565b34801561030d57600080fd5b506103166108c7565b60408051918252519081900360200190f35b34801561033457600080fd5b506100bd6108ce565b60408051602060046024803582810135601f81018590048502860185019096528585526103d5958335600160a060020a031695369560449491939091019190819084018382808284375050604080516020601f89358b018035918201839004830284018301909452808352979a9998810197919650918201945092508291508401838280828437509497506109129650505050505050565b6040805160208082528351818301528351919283929083019185019080838360005b8381101561040f5781810151838201526020016103f7565b50505050905090810190601f16801561043c5780820380516001836020036101000a031916815260200191505b509250505060405180910390f35b336000908152600460205260408120805473ffffffffffffffffffffffffffffffffffffffff19168155906104826001830182610bc5565b610490600283016000610bc5565b5050565b60038054829081106104a257fe5b600091825260209091200154600160a060020a0316905081565b6000606080600460006003868154811015156104d457fe5b6000918252602080832090910154600160a060020a039081168452908301939093526040909101812054600380549190931692600492918890811061051557fe5b9060005260206000200160009054906101000a9004600160a060020a0316600160a060020a0316600160a060020a031681526020019081526020016000206001016004600060038881548110151561056957fe5b6000918252602080832090910154600160a060020a03168352828101939093526040918201902083548251601f600260001960018516156101000201909316839004908101869004860282018601909452838152910192909184918301828280156106155780601f106105ea57610100808354040283529160200191610615565b820191906000526020600020905b8154815290600101906020018083116105f857829003601f168201915b5050845460408051602060026001851615610100026000190190941693909304601f8101849004840282018401909252818152959750869450925084019050828280156106a35780601f10610678576101008083540402835291602001916106a3565b820191906000526020600020905b81548152906001019060200180831161068657829003601f168201915b505050505090509250925092509193909250565b600160a060020a03818116600090815260046020908152604080832080546001808301805485516002610100948316159490940260001901909116839004601f8101889004880282018801909652858152969760609788979490911695919492909201928491908301828280156106155780601f106105ea57610100808354040283529160200191610615565b6004602090815260009182526040918290208054600180830180548651600261010094831615949094026000190190911692909204601f8101869004860283018601909652858252600160a060020a039092169492939092908301828280156107ee5780601f106107c3576101008083540402835291602001916107ee565b820191906000526020600020905b8154815290600101906020018083116107d157829003601f168201915b50505060028085018054604080516020601f60001961010060018716150201909416959095049283018590048502810185019091528181529596959450909250908301828280156108805780601f1061085557610100808354040283529160200191610880565b820191906000526020600020905b81548152906001019060200180831161086357829003601f168201915b5050505050905083565b600054600160a060020a0316331461089e57fe5b6108a9838383610a1d565b505050565b600054600160a060020a031633146108c257fe5b600155565b6001545b90565b600054600160a060020a031633146108e257fe5b6040513390303180156108fc02916000818181858888f1935050505015801561090f573d6000803e3d6000fd5b50565b6001546060903410156109ac57604080517f08c379a000000000000000000000000000000000000000000000000000000000815260206004820152602260248201527f436f756c646e277420616464206265636175736520796f7520756e646572706160448201527f6964000000000000000000000000000000000000000000000000000000000000606482015290519081900360840190fd5b6109b7848484610a1d565b606060405190810160405280602181526020017f596f7520617265206e6f77206f6e20746865204d65746144617461206c69737481526020017f210000000000000000000000000000000000000000000000000000000000000081525090509392505050565b610a25610c09565b5060408051606081018252600160a060020a038581168083526020808401878152848601879052600092835260048252949091208351815473ffffffffffffffffffffffffffffffffffffffff191693169290921782559251805192938493610a949260018501920190610c34565b5060408201518051610ab0916002840191602090910190610c34565b5050600380546001808201835560009283527fc2575a0e9e593c00f959f8c92f12db2869c3395a3b0502d05e2516446f71f85b909101805473ffffffffffffffffffffffffffffffffffffffff1916600160a060020a0389169081179091556002805490920190915560408051918252602080830182815287519284019290925286517fe79311f0109924ce029415f40b129079c2ca1c8f26456f6ed3ef6ea7d9f789e795508994889493926060850192908601918190849084905b83811015610b84578181015183820152602001610b6c565b50505050905090810190601f168015610bb15780820380516001836020036101000a031916815260200191505b50935050505060405180910390a150505050565b50805460018160011615610100020316600290046000825580601f10610beb575061090f565b601f01602090049060005260206000209081019061090f9190610cb2565b6060604051908101604052806000600160a060020a0316815260200160608152602001606081525090565b828054600181600116156101000203166002900490600052602060002090601f016020900481019282601f10610c7557805160ff1916838001178555610ca2565b82800160010185558215610ca2579182015b82811115610ca2578251825591602001919060010190610c87565b50610cae929150610cb2565b5090565b6108cb91905b80821115610cae5760008155600101610cb85600a165627a7a7230582070c2b4ff5e4a39ac4f83bb9a6685c32f5883d80e7f4ee8bff4dd360e2e3500b90029",
  "source": "pragma solidity ^0.4.24;\n\n// This is the Ethtective MetaData list, add yourself at http://www.ethtective.com\n// TODO separate store into another contract\n\ncontract MetaDataStorage {\n\n    address owner;\n\n    uint current_index = 0;\n    address[] public keys;\n    mapping(address => MetaData) public adresses;\n\n    struct MetaData {\n        address _address;\n        string _name;\n        string _ipfs;\n        //blockno\n    }  \n\n    constructor(address _owner) public {\n        owner = _owner;\n    }\n\n}\n\ncontract MetaDataController {\n    \n    address owner;\n    uint price = 10000000000000000;\n\n    uint current_index = 0;\n    address[] public keys;\n    mapping(address => MetaData) public adresses; \n\n    event SetData (\n        address _address,\n        string _logo_ipfs\n    );\n\n    constructor() public {\n        owner = msg.sender;\n    }\n    \n    struct MetaData {\n        address _address;\n        string _name;\n        string _logo_ipfs;\n    }  \n    \n    // Add yourself to Ze List Of AweZome! (buy the Dank Mono Font by the way, disclaimer: I am just a user of the font but it has the most porno Z of all programming fonts in existenZ)\n    function addAddress(address _address, string _name, string _logo_ipfs) public payable returns(string) {\n        require(msg.value >= price, \"Couldn't add because you underpaid\");\n        addInternal(_address, _name, _logo_ipfs);\n        return \"You are now on the MetaData list!\";\n    }\n\n    function addByOwner(address _address, string _name, string _logo_ipfs) public {\n        assert(msg.sender == owner);\n        addInternal(_address, _name, _logo_ipfs);\n    }\n    \n    //function addMultiple(address[] _address, string[] _name, string[] _logo_ipfs) public {\n        \n    //}\n\n    function addInternal(address _address, string _name, string _logo_ipfs) private {\n        MetaData memory newData = MetaData(_address, _name, _logo_ipfs);\n        //we have a new MetaData\n        adresses[_address] = newData;\n        //add address to keys LUT\n        keys.push(_address);\n        //increase the indexer\n        current_index += 1;\n        emit SetData(_address,_logo_ipfs);\n    }\n\n    // This is to let the owner remove information about his address that he doesn't like, receives a small refund for his efforts and the sad fact that he's not on the list anymore\n    function getMeOffTheFuckingList() public {\n        delete adresses[msg.sender];\n    }\n    \n    // This is for me, all of it, it funds my habits\n    function lootDonationBox() public\n    {\n        assert(msg.sender == owner);\n        msg.sender.transfer(address(this).balance);\n    }\n    \n    function getByIndex(uint i) public view returns(address, string, string) \n    {\n        return (adresses[keys[i]]._address, adresses[keys[i]]._name, adresses[keys[i]]._logo_ipfs);\n    }\n    \n    function getByAddress(address a) public view returns(address, string, string) \n    {\n        return (adresses[a]._address, adresses[a]._name, adresses[a]._logo_ipfs);\n    }\n    \n    function setPrice(uint _price) public\n    {\n        assert(msg.sender == owner);\n        price = _price;\n    }\n    \n    function getPrice() public view returns(uint)\n    {\n        return price;\n    }\n  \n}",
  "sourcePath": "/Users/alexander/Node/ethtective.contracts/contracts/metadata_v2.sol",
  "compiler": {
    "name": "solc",
    "version": "0.4.24+commit.e67f0147.Emscripten.clang"
  },
  "schemaVersion": "2.0.1",
  "updatedAt": "2018-09-11T10:29:21.901Z"
}